{
  "contractName": "WRNRewardPool",
  "abi": [
    {
      "anonymous": false,
      "inputs": [
        {
          "indexed": true,
          "internalType": "address",
          "name": "token",
          "type": "address"
        },
        {
          "indexed": true,
          "internalType": "address",
          "name": "account",
          "type": "address"
        },
        {
          "indexed": false,
          "internalType": "uint256",
          "name": "amount",
          "type": "uint256"
        },
        {
          "indexed": false,
          "internalType": "uint256",
          "name": "timestamp",
          "type": "uint256"
        }
      ],
      "name": "BonusClaimed",
      "type": "event"
    },
    {
      "anonymous": false,
      "inputs": [
        {
          "indexed": true,
          "internalType": "address",
          "name": "token",
          "type": "address"
        },
        {
          "indexed": true,
          "internalType": "address",
          "name": "account",
          "type": "address"
        },
        {
          "indexed": false,
          "internalType": "uint256",
          "name": "amount",
          "type": "uint256"
        },
        {
          "indexed": false,
          "internalType": "uint256",
          "name": "refundAmount",
          "type": "uint256"
        },
        {
          "indexed": false,
          "internalType": "uint256",
          "name": "penalty",
          "type": "uint256"
        },
        {
          "indexed": false,
          "internalType": "uint256",
          "name": "fee",
          "type": "uint256"
        },
        {
          "indexed": false,
          "internalType": "uint256",
          "name": "remainingTotal",
          "type": "uint256"
        },
        {
          "indexed": false,
          "internalType": "uint256",
          "name": "durationInMonths",
          "type": "uint256"
        },
        {
          "indexed": false,
          "internalType": "uint256",
          "name": "timestamp",
          "type": "uint256"
        }
      ],
      "name": "Exited",
      "type": "event"
    },
    {
      "anonymous": false,
      "inputs": [
        {
          "indexed": true,
          "internalType": "address",
          "name": "token",
          "type": "address"
        },
        {
          "indexed": true,
          "internalType": "address",
          "name": "account",
          "type": "address"
        },
        {
          "indexed": false,
          "internalType": "uint256",
          "name": "amount",
          "type": "uint256"
        },
        {
          "indexed": false,
          "internalType": "uint256",
          "name": "totalLockUp",
          "type": "uint256"
        },
        {
          "indexed": false,
          "internalType": "uint256",
          "name": "durationInMonths",
          "type": "uint256"
        },
        {
          "indexed": false,
          "internalType": "uint256",
          "name": "timestamp",
          "type": "uint256"
        }
      ],
      "name": "LockedUp",
      "type": "event"
    },
    {
      "anonymous": false,
      "inputs": [
        {
          "indexed": true,
          "internalType": "address",
          "name": "previousOwner",
          "type": "address"
        },
        {
          "indexed": true,
          "internalType": "address",
          "name": "newOwner",
          "type": "address"
        }
      ],
      "name": "OwnershipTransferred",
      "type": "event"
    },
    {
      "anonymous": false,
      "inputs": [
        {
          "indexed": true,
          "internalType": "address",
          "name": "tokenAddress",
          "type": "address"
        },
        {
          "indexed": false,
          "internalType": "uint256",
          "name": "multiplier",
          "type": "uint256"
        },
        {
          "indexed": false,
          "internalType": "uint256",
          "name": "timestamp",
          "type": "uint256"
        }
      ],
      "name": "PoolAdded",
      "type": "event"
    },
    {
      "anonymous": false,
      "inputs": [
        {
          "indexed": true,
          "internalType": "address",
          "name": "tokenAddress",
          "type": "address"
        },
        {
          "indexed": true,
          "internalType": "address",
          "name": "account",
          "type": "address"
        },
        {
          "indexed": false,
          "internalType": "uint256",
          "name": "amount",
          "type": "uint256"
        },
        {
          "indexed": false,
          "internalType": "uint256",
          "name": "timestamp",
          "type": "uint256"
        }
      ],
      "name": "WRNClaimed",
      "type": "event"
    },
    {
      "anonymous": false,
      "inputs": [
        {
          "indexed": true,
          "internalType": "address",
          "name": "tokenAddress",
          "type": "address"
        },
        {
          "indexed": false,
          "internalType": "uint256",
          "name": "amount",
          "type": "uint256"
        },
        {
          "indexed": false,
          "internalType": "uint256",
          "name": "timestamp",
          "type": "uint256"
        }
      ],
      "name": "WRNMinted",
      "type": "event"
    },
    {
      "inputs": [],
      "name": "PENALTY_RATE",
      "outputs": [
        {
          "internalType": "uint256",
          "name": "",
          "type": "uint256"
        }
      ],
      "stateMutability": "view",
      "type": "function"
    },
    {
      "inputs": [],
      "name": "PLATFORM_FEE_RATE",
      "outputs": [
        {
          "internalType": "uint256",
          "name": "",
          "type": "uint256"
        }
      ],
      "stateMutability": "view",
      "type": "function"
    },
    {
      "inputs": [],
      "name": "REWARD_EARLY_BONUS_BOOST",
      "outputs": [
        {
          "internalType": "uint256",
          "name": "",
          "type": "uint256"
        }
      ],
      "stateMutability": "view",
      "type": "function"
    },
    {
      "inputs": [],
      "name": "REWARD_EARLY_BONUS_END_BLOCK",
      "outputs": [
        {
          "internalType": "uint256",
          "name": "",
          "type": "uint256"
        }
      ],
      "stateMutability": "view",
      "type": "function"
    },
    {
      "inputs": [],
      "name": "REWARD_END_BLOCK",
      "outputs": [
        {
          "internalType": "uint256",
          "name": "",
          "type": "uint256"
        }
      ],
      "stateMutability": "view",
      "type": "function"
    },
    {
      "inputs": [],
      "name": "REWARD_PER_BLOCK",
      "outputs": [
        {
          "internalType": "uint256",
          "name": "",
          "type": "uint256"
        }
      ],
      "stateMutability": "view",
      "type": "function"
    },
    {
      "inputs": [],
      "name": "REWARD_START_BLOCK",
      "outputs": [
        {
          "internalType": "uint256",
          "name": "",
          "type": "uint256"
        }
      ],
      "stateMutability": "view",
      "type": "function"
    },
    {
      "inputs": [],
      "name": "SECONDS_IN_MONTH",
      "outputs": [
        {
          "internalType": "uint256",
          "name": "",
          "type": "uint256"
        }
      ],
      "stateMutability": "view",
      "type": "function"
    },
    {
      "inputs": [],
      "name": "WRNToken",
      "outputs": [
        {
          "internalType": "contract ERC20PresetMinterPauserUpgradeSafe",
          "name": "",
          "type": "address"
        }
      ],
      "stateMutability": "view",
      "type": "function"
    },
    {
      "inputs": [
        {
          "internalType": "address",
          "name": "tokenAddress",
          "type": "address"
        },
        {
          "internalType": "uint256",
          "name": "maxLockUpLimit",
          "type": "uint256"
        }
      ],
      "name": "addLockUpPool",
      "outputs": [],
      "stateMutability": "nonpayable",
      "type": "function"
    },
    {
      "inputs": [
        {
          "internalType": "address",
          "name": "tokenAddress",
          "type": "address"
        },
        {
          "internalType": "uint256",
          "name": "multiplier",
          "type": "uint256"
        },
        {
          "internalType": "uint256",
          "name": "maxLockUpLimit",
          "type": "uint256"
        },
        {
          "internalType": "bool",
          "name": "shouldUpdate",
          "type": "bool"
        }
      ],
      "name": "addLockUpRewardPool",
      "outputs": [],
      "stateMutability": "nonpayable",
      "type": "function"
    },
    {
      "inputs": [
        {
          "internalType": "address",
          "name": "tokenAddress",
          "type": "address"
        }
      ],
      "name": "claimBonus",
      "outputs": [],
      "stateMutability": "nonpayable",
      "type": "function"
    },
    {
      "inputs": [
        {
          "internalType": "address",
          "name": "tokenAddress",
          "type": "address"
        }
      ],
      "name": "claimWRN",
      "outputs": [],
      "stateMutability": "nonpayable",
      "type": "function"
    },
    {
      "inputs": [
        {
          "internalType": "address",
          "name": "tokenAddress",
          "type": "address"
        }
      ],
      "name": "claimWRNandBonus",
      "outputs": [],
      "stateMutability": "nonpayable",
      "type": "function"
    },
    {
      "inputs": [
        {
          "internalType": "address",
          "name": "tokenAddress",
          "type": "address"
        },
        {
          "internalType": "uint256",
          "name": "amount",
          "type": "uint256"
        },
        {
          "internalType": "uint256",
          "name": "durationInMonths",
          "type": "uint256"
        }
      ],
      "name": "doLockUp",
      "outputs": [],
      "stateMutability": "nonpayable",
      "type": "function"
    },
    {
      "inputs": [
        {
          "internalType": "address",
          "name": "tokenAddress",
          "type": "address"
        }
      ],
      "name": "earnedBonus",
      "outputs": [
        {
          "internalType": "uint256",
          "name": "",
          "type": "uint256"
        }
      ],
      "stateMutability": "view",
      "type": "function"
    },
    {
      "inputs": [],
      "name": "emergencyMode",
      "outputs": [
        {
          "internalType": "bool",
          "name": "",
          "type": "bool"
        }
      ],
      "stateMutability": "view",
      "type": "function"
    },
    {
      "inputs": [
        {
          "internalType": "address",
          "name": "tokenAddress",
          "type": "address"
        },
        {
          "internalType": "uint256",
          "name": "lockUpIndex",
          "type": "uint256"
        },
        {
          "internalType": "bool",
          "name": "force",
          "type": "bool"
        }
      ],
      "name": "exit",
      "outputs": [],
      "stateMutability": "nonpayable",
      "type": "function"
    },
    {
      "inputs": [],
      "name": "fundAddress",
      "outputs": [
        {
          "internalType": "address",
          "name": "",
          "type": "address"
        }
      ],
      "stateMutability": "view",
      "type": "function"
    },
    {
      "inputs": [
        {
          "internalType": "address",
          "name": "tokenAddress",
          "type": "address"
        },
        {
          "internalType": "address",
          "name": "account",
          "type": "address"
        },
        {
          "internalType": "uint256",
          "name": "lockUpId",
          "type": "uint256"
        }
      ],
      "name": "getLockUp",
      "outputs": [
        {
          "internalType": "uint256",
          "name": "",
          "type": "uint256"
        },
        {
          "internalType": "uint256",
          "name": "",
          "type": "uint256"
        },
        {
          "internalType": "uint256",
          "name": "",
          "type": "uint256"
        },
        {
          "internalType": "uint256",
          "name": "",
          "type": "uint256"
        },
        {
          "internalType": "uint256",
          "name": "",
          "type": "uint256"
        }
      ],
      "stateMutability": "view",
      "type": "function"
    },
    {
      "inputs": [],
      "name": "initialize",
      "outputs": [],
      "stateMutability": "nonpayable",
      "type": "function"
    },
    {
      "inputs": [
        {
          "internalType": "address",
          "name": "WRNAddress",
          "type": "address"
        },
        {
          "internalType": "uint256",
          "name": "rewardStartBlock",
          "type": "uint256"
        },
        {
          "internalType": "uint256",
          "name": "rewardBlocks",
          "type": "uint256"
        },
        {
          "internalType": "uint256",
          "name": "bonusBlocks",
          "type": "uint256"
        },
        {
          "internalType": "uint256",
          "name": "rewardPerBlock",
          "type": "uint256"
        }
      ],
      "name": "initialize",
      "outputs": [],
      "stateMutability": "nonpayable",
      "type": "function"
    },
    {
      "inputs": [
        {
          "internalType": "address",
          "name": "tokenAddress",
          "type": "address"
        },
        {
          "internalType": "address",
          "name": "account",
          "type": "address"
        },
        {
          "internalType": "uint256",
          "name": "lockUpId",
          "type": "uint256"
        }
      ],
      "name": "lockedUpAt",
      "outputs": [
        {
          "internalType": "uint256",
          "name": "",
          "type": "uint256"
        }
      ],
      "stateMutability": "view",
      "type": "function"
    },
    {
      "inputs": [],
      "name": "owner",
      "outputs": [
        {
          "internalType": "address",
          "name": "",
          "type": "address"
        }
      ],
      "stateMutability": "view",
      "type": "function"
    },
    {
      "inputs": [
        {
          "internalType": "address",
          "name": "tokenAddress",
          "type": "address"
        }
      ],
      "name": "pendingWRN",
      "outputs": [
        {
          "internalType": "uint256",
          "name": "",
          "type": "uint256"
        }
      ],
      "stateMutability": "view",
      "type": "function"
    },
    {
      "inputs": [],
      "name": "poolCount",
      "outputs": [
        {
          "internalType": "uint256",
          "name": "",
          "type": "uint256"
        }
      ],
      "stateMutability": "view",
      "type": "function"
    },
    {
      "inputs": [
        {
          "internalType": "uint256",
          "name": "",
          "type": "uint256"
        }
      ],
      "name": "pools",
      "outputs": [
        {
          "internalType": "address",
          "name": "",
          "type": "address"
        }
      ],
      "stateMutability": "view",
      "type": "function"
    },
    {
      "inputs": [],
      "name": "renounceOwnership",
      "outputs": [],
      "stateMutability": "nonpayable",
      "type": "function"
    },
    {
      "inputs": [
        {
          "internalType": "bool",
          "name": "mode",
          "type": "bool"
        }
      ],
      "name": "setEmergencyMode",
      "outputs": [],
      "stateMutability": "nonpayable",
      "type": "function"
    },
    {
      "inputs": [
        {
          "internalType": "address",
          "name": "_fundAddress",
          "type": "address"
        }
      ],
      "name": "setFundAddress",
      "outputs": [],
      "stateMutability": "nonpayable",
      "type": "function"
    },
    {
      "inputs": [
        {
          "internalType": "address",
          "name": "",
          "type": "address"
        }
      ],
      "name": "tokenStats",
      "outputs": [
        {
          "internalType": "uint256",
          "name": "maxLockUpLimit",
          "type": "uint256"
        },
        {
          "internalType": "uint256",
          "name": "totalLockUp",
          "type": "uint256"
        },
        {
          "internalType": "uint256",
          "name": "effectiveTotalLockUp",
          "type": "uint256"
        },
        {
          "internalType": "uint256",
          "name": "accBonusPerShare",
          "type": "uint256"
        },
        {
          "internalType": "uint256",
          "name": "totalPenalty",
          "type": "uint256"
        },
        {
          "internalType": "uint256",
          "name": "accTotalLockUp",
          "type": "uint256"
        },
        {
          "internalType": "uint40",
          "name": "accLockUpCount",
          "type": "uint40"
        },
        {
          "internalType": "uint40",
          "name": "activeLockUpCount",
          "type": "uint40"
        },
        {
          "internalType": "uint40",
          "name": "unlockedCount",
          "type": "uint40"
        },
        {
          "internalType": "uint40",
          "name": "brokenCount",
          "type": "uint40"
        }
      ],
      "stateMutability": "view",
      "type": "function"
    },
    {
      "inputs": [],
      "name": "totalMultiplier",
      "outputs": [
        {
          "internalType": "uint256",
          "name": "",
          "type": "uint256"
        }
      ],
      "stateMutability": "view",
      "type": "function"
    },
    {
      "inputs": [
        {
          "internalType": "address",
          "name": "newOwner",
          "type": "address"
        }
      ],
      "name": "transferOwnership",
      "outputs": [],
      "stateMutability": "nonpayable",
      "type": "function"
    },
    {
      "inputs": [],
      "name": "updateAllPools",
      "outputs": [],
      "stateMutability": "nonpayable",
      "type": "function"
    },
    {
      "inputs": [
        {
          "internalType": "address",
          "name": "tokenAddress",
          "type": "address"
        },
        {
          "internalType": "uint256",
          "name": "maxLockUpLimit",
          "type": "uint256"
        }
      ],
      "name": "updateMaxLimit",
      "outputs": [],
      "stateMutability": "nonpayable",
      "type": "function"
    },
    {
      "inputs": [
        {
          "internalType": "address",
          "name": "tokenAddress",
          "type": "address"
        }
      ],
      "name": "updatePool",
      "outputs": [],
      "stateMutability": "nonpayable",
      "type": "function"
    },
    {
      "inputs": [
        {
          "internalType": "address",
          "name": "tokenAddress",
          "type": "address"
        },
        {
          "internalType": "uint256",
          "name": "multiplier",
          "type": "uint256"
        },
        {
          "internalType": "bool",
          "name": "shouldUpdate",
          "type": "bool"
        }
      ],
      "name": "updatePoolMultiplier",
      "outputs": [],
      "stateMutability": "nonpayable",
      "type": "function"
    },
    {
      "inputs": [
        {
          "internalType": "address",
          "name": "",
          "type": "address"
        },
        {
          "internalType": "address",
          "name": "",
          "type": "address"
        }
      ],
      "name": "userLockUps",
      "outputs": [
        {
          "internalType": "uint256",
          "name": "total",
          "type": "uint256"
        },
        {
          "internalType": "uint256",
          "name": "effectiveTotal",
          "type": "uint256"
        },
        {
          "internalType": "uint256",
          "name": "accTotal",
          "type": "uint256"
        },
        {
          "internalType": "uint256",
          "name": "bonusClaimed",
          "type": "uint256"
        },
        {
          "internalType": "uint256",
          "name": "bonusDebt",
          "type": "uint256"
        },
        {
          "internalType": "uint40",
          "name": "lockedUpCount",
          "type": "uint40"
        }
      ],
      "stateMutability": "view",
      "type": "function"
    },
    {
      "inputs": [
        {
          "internalType": "address",
          "name": "",
          "type": "address"
        },
        {
          "internalType": "address",
          "name": "",
          "type": "address"
        }
      ],
      "name": "userWRNRewards",
      "outputs": [
        {
          "internalType": "uint256",
          "name": "claimed",
          "type": "uint256"
        },
        {
          "internalType": "uint256",
          "name": "debt",
          "type": "uint256"
        }
      ],
      "stateMutability": "view",
      "type": "function"
    },
    {
      "inputs": [
        {
          "internalType": "address",
          "name": "",
          "type": "address"
        }
      ],
      "name": "wrnStats",
      "outputs": [
        {
          "internalType": "uint256",
          "name": "multiplier",
          "type": "uint256"
        },
        {
          "internalType": "uint256",
          "name": "accWRNPerShare",
          "type": "uint256"
        },
        {
          "internalType": "uint256",
          "name": "lastRewardBlock",
          "type": "uint256"
        }
      ],
      "stateMutability": "view",
      "type": "function"
    }
  ],
  "bytecode": "0x608060405234801561001057600080fd5b50612eca806100206000396000f3fe608060405234801561001057600080fd5b50600436106102c85760003560e01c806385dc30041161017b578063e2be30c3116100d8578063f344dcce1161008c578063f42d989c11610071578063f42d989c1461082f578063f525cb6814610837578063febb97cd1461083f576102c8565b8063f344dcce146107c6578063f39e3c53146107ce576102c8565b8063ec12a5e1116100bd578063ec12a5e114610712578063ece805281461071a578063f2fde38b146107a0576102c8565b8063e2be30c3146106de578063e82bef291461070a576102c8565b8063ac4afa381161012f578063be32b3f811610114578063be32b3f814610691578063cd74a00e146106b0578063d79fb125146106b8576102c8565b8063ac4afa381461066c578063b9ec7d7414610689576102c8565b8063975532dc11610160578063975532dc146105fa578063a9df60a614610602578063aa28dce114610628576102c8565b806385dc3004146105b05780638da5cb5b146105d6576102c8565b806364cdba23116102295780637621651b116101dd5780637b46c54f116101c25780637b46c54f146105565780637fb09e191461057c5780638129fc1c146105a8576102c8565b80637621651b1461051c5780637884d98e1461054e576102c8565b80636b6da8691161020e5780636b6da869146104d65780636c28dd471461050c578063715018a614610514576102c8565b806364cdba231461045b5780636a38c8511461048f576102c8565b806327855b131161028057806334fe98241161026557806334fe9824146103c95780633652364d146103ef5780634ec81af114610423576102c8565b806327855b13146103b95780632930fa49146103c1576102c8565b80630e4dc3df116102b15780630e4dc3df146103035780630e99f5e61461032b57806317f121cd14610351576102c8565b80630905f560146102cd5780630ad08b86146102e9575b600080fd5b6102d5610879565b604080519115158252519081900360200190f35b6102f1610882565b60408051918252519081900360200190f35b6103296004803603602081101561031957600080fd5b50356001600160a01b0316610888565b005b6103296004803603602081101561034157600080fd5b50356001600160a01b031661089d565b61037f6004803603604081101561036757600080fd5b506001600160a01b0381358116916020013516610a0d565b604080519687526020870195909552858501939093526060850191909152608084015264ffffffffff1660a0830152519081900360c00190f35b6102f1610a54565b6102f1610a5a565b610329600480360360208110156103df57600080fd5b50356001600160a01b0316610a60565b6103296004803603606081101561040557600080fd5b506001600160a01b0381351690602081013590604001351515610b1f565b6103296004803603608081101561043957600080fd5b506001600160a01b038135169060208101359060408101359060600135610c34565b6103296004803603606081101561047157600080fd5b506001600160a01b0381351690602081013590604001351515610d85565b6104bd600480360360408110156104a557600080fd5b506001600160a01b0381358116916020013516610da8565b6040805192835260208301919091528051918290030190f35b6102f1600480360360608110156104ec57600080fd5b506001600160a01b03813581169160208101359091169060400135610dcc565b6102f1610e3d565b610329610e43565b6103296004803603606081101561053257600080fd5b506001600160a01b038135169060208101359060400135610ef7565b6102f1610f0b565b6103296004803603602081101561056c57600080fd5b50356001600160a01b0316610f11565b6103296004803603604081101561059257600080fd5b506001600160a01b038135169060200135611170565b610329611254565b610329600480360360208110156105c657600080fd5b50356001600160a01b0316611334565b6105de6113c0565b604080516001600160a01b039092168252519081900360200190f35b6102f16113cf565b6102f16004803603602081101561061857600080fd5b50356001600160a01b03166113d5565b61064e6004803603602081101561063e57600080fd5b50356001600160a01b0316611439565b60408051938452602084019290925282820152519081900360600190f35b6105de6004803603602081101561068257600080fd5b503561145a565b610329611481565b610329600480360360208110156106a757600080fd5b503515156114c1565b6102f161153e565b6102f1600480360360208110156106ce57600080fd5b50356001600160a01b0316611544565b610329600480360360408110156106f457600080fd5b506001600160a01b03813516906020013561162b565b6105de611814565b6102f1611823565b6107406004803603602081101561073057600080fd5b50356001600160a01b0316611829565b604080519a8b5260208b0199909952898901979097526060890195909552608088019390935260a087019190915264ffffffffff90811660c087015290811660e08601529081166101008501521661012083015251908190036101400190f35b610329600480360360208110156107b657600080fd5b50356001600160a01b03166118a1565b6102f16119ac565b610804600480360360608110156107e457600080fd5b506001600160a01b038135811691602081013590911690604001356119b2565b6040805195865260208601949094528484019290925260608401526080830152519081900360a00190f35b6105de611a2e565b6102f1611a3d565b6103296004803603608081101561085557600080fd5b506001600160a01b0381351690602081013590604081013590606001351515611a43565b609a5460ff1681565b60975481565b61089181610a60565b61089a8161089d565b50565b6001600160a01b0381166000908152609b602052604090205481906108fa576040805162461bcd60e51b815260206004820152600e60248201526d1413d3d317d393d517d193d5539160921b604482015290519081900360640190fd5b609a5460ff1615610952576040805162461bcd60e51b815260206004820152601860248201527f4e4f545f414c4c4f5745445f494e5f454d455247454e43590000000000000000604482015290519081900360640190fd5b600061095d836113d5565b90508061096a5750610a09565b6001600160a01b0383166000908152609d602090815260408083203384529091529020600381015461099c9083611b2c565b60038201556109ab8433611b8f565b6109bf6001600160a01b0385163384611c0f565b60408051838152426020820152815133926001600160a01b038816927fd5eeb1722f31a8860bc267994791dfaa8cd4a69618a5657894ef35b5ee6a1910929081900390910190a350505b5050565b609d602090815260009283526040808420909152908252902080546001820154600283015460038401546004850154600590950154939492939192909164ffffffffff1686565b60995481565b60985481565b610a6981610f11565b6000610a7482611544565b905080610a81575061089a565b6001600160a01b038216600090815260d96020908152604080832033845290915290208054610ab09083611b2c565b8155610abc8333611c8f565b60d154610ad3906001600160a01b03163384611c0f565b60408051838152426020820152815133926001600160a01b038716927f3a8217b8543a68a24a3237f554f6bde895eea533bb07a2fa7bd68ce790fd80fb929081900390910190a3505050565b610b27611d11565b6065546001600160a01b03908116911614610b89576040805162461bcd60e51b815260206004820181905260248201527f4f776e61626c653a2063616c6c6572206973206e6f7420746865206f776e6572604482015290519081900360640190fd5b8015610b9c57610b97611481565b610c09565b6001600160a01b038316600090815260d86020526040902054821015610c09576040805162461bcd60e51b815260206004820152601360248201527f5550444154455f414c4c5f524551554952454400000000000000000000000000604482015290519081900360640190fd5b506001600160a01b03909116600090815260d860205260409020805460d78054919091038301905555565b600054610100900460ff1680610c4d5750610c4d611d15565b80610c5b575060005460ff16155b610c965760405162461bcd60e51b815260040180806020018281038252602e815260200180612e3d602e913960400191505060405180910390fd5b600054610100900460ff16158015610cc1576000805460ff1961ff0019909116610100171660011790555b82821115610d16576040805162461bcd60e51b815260206004820152600d60248201527f494e56414c49445f504152414d00000000000000000000000000000000000000604482015290519081900360640190fd5b610d1e611254565b60d180546001600160a01b0319166001600160a01b03871617905560d284905567016345785d8a000060d555610d548484611b2c565b60d35560d254610d649083611b2c565b60d455600560d6558015610d7e576000805461ff00191690555b5050505050565b610d8e83610a60565b610d99838383611d1b565b610da38333611c8f565b505050565b60d96020908152600092835260408084209091529082529020805460019091015482565b6001600160a01b038084166000908152609d602090815260408083209386168352929052908120600601805482919084908110610e0557fe5b90600052602060002090600502019050610e34609954826000015402826001015461221790919063ffffffff16565b95945050505050565b60d35481565b610e4b611d11565b6065546001600160a01b03908116911614610ead576040805162461bcd60e51b815260206004820181905260248201527f4f776e61626c653a2063616c6c6572206973206e6f7420746865206f776e6572604482015290519081900360640190fd5b6065546040516000916001600160a01b0316907f8be0079c531659141344cd1fd0a4f28419497f9722a3daafe3b4186f6b6457e0908390a3606580546001600160a01b0319169055565b610f0083610a60565b610d99838383612259565b60d25481565b6001600160a01b0381166000908152609b60205260409020548190610f6e576040805162461bcd60e51b815260206004820152600e60248201526d1413d3d317d393d517d193d5539160921b604482015290519081900360640190fd5b6001600160a01b038216600090815260d86020526040902060028101544311610f975750610a09565b6001600160a01b0383166000908152609b6020526040812090610fb985612654565b90508260020154600014158015610fd4575060008260020154115b8015610fe05750600081115b156111635760d154609e546001600160a01b03918216916340c10f199116611009846009612696565b6040518363ffffffff1660e01b815260040180836001600160a01b0316815260200182815260200192505050600060405180830381600087803b15801561104f57600080fd5b505af1158015611063573d6000803e3d6000fd5b505060d154604080517f40c10f190000000000000000000000000000000000000000000000000000000081523060048201526024810186905290516001600160a01b0390921693506340c10f19925060448082019260009290919082900301818387803b1580156110d357600080fd5b505af11580156110e7573d6000803e3d6000fd5b505050600283015461111b91506111109061110a84670de0b6b3a76400006126d8565b90612696565b600185015490611b2c565b60018401556040805182815242602082015281516001600160a01b038816927f67c5ec4e3f0d3ce4fdaa7d69c15fc05062c881c6f042f24be9acedc9886a32bd928290030190a25b5050436002909101555050565b611178611d11565b6065546001600160a01b039081169116146111da576040805162461bcd60e51b815260206004820181905260248201527f4f776e61626c653a2063616c6c6572206973206e6f7420746865206f776e6572604482015290519081900360640190fd5b6001600160a01b0382166000908152609b60205260409020548290611237576040805162461bcd60e51b815260206004820152600e60248201526d1413d3d317d393d517d193d5539160921b604482015290519081900360640190fd5b506001600160a01b039091166000908152609b6020526040902055565b600054610100900460ff168061126d575061126d611d15565b8061127b575060005460ff16155b6112b65760405162461bcd60e51b815260040180806020018281038252602e815260200180612e3d602e913960400191505060405180910390fd5b600054610100900460ff161580156112e1576000805460ff1961ff0019909116610100171660011790555b6112e9612731565b600a609755600360985562278d00609955609e80546001600160a01b0319167382ca6d313bffe56e9096b16633dfd414148d66b1179055801561089a576000805461ff001916905550565b61133c611d11565b6065546001600160a01b0390811691161461139e576040805162461bcd60e51b815260206004820181905260248201527f4f776e61626c653a2063616c6c6572206973206e6f7420746865206f776e6572604482015290519081900360640190fd5b609e80546001600160a01b0319166001600160a01b0392909216919091179055565b6065546001600160a01b031690565b60d55481565b6001600160a01b0381166000908152609b60209081526040808320609d83528184203385529092528220600481015460038301546001830154611431929161142b91670de0b6b3a76400009161110a91906126d8565b90612217565b949350505050565b60d86020526000908152604090208054600182015460029092015490919083565b609c818154811061146757fe5b6000918252602090912001546001600160a01b0316905081565b609c5460005b81811015610a09576114b9609c828154811061149f57fe5b6000918252602090912001546001600160a01b0316610f11565b600101611487565b6114c9611d11565b6065546001600160a01b0390811691161461152b576040805162461bcd60e51b815260206004820181905260248201527f4f776e61626c653a2063616c6c6572206973206e6f7420746865206f776e6572604482015290519081900360640190fd5b609a805460ff1916911515919091179055565b60d65481565b6001600160a01b0381166000908152609b6020908152604080832060d8835281842060d9845282852033865290935290832060018301546002840154929392431180156115945750600284015415155b156115d75760006115a487612654565b90506115d36115cc866002015461110a670de0b6b3a7640000856126d890919063ffffffff16565b8390611b2c565b9150505b6001808301546001600160a01b0388166000908152609d60209081526040808320338452909152902090910154611621919061142b90670de0b6b3a76400009061110a90866126d8565b9695505050505050565b611633611d11565b6065546001600160a01b03908116911614611695576040805162461bcd60e51b815260206004820181905260248201527f4f776e61626c653a2063616c6c6572206973206e6f7420746865206f776e6572604482015290519081900360640190fd5b6116a7826001600160a01b03166127e2565b6116f8576040805162461bcd60e51b815260206004820152600d60248201527f494e56414c49445f544f4b454e00000000000000000000000000000000000000604482015290519081900360640190fd5b6001600160a01b0382166000908152609b602052604090205415611763576040805162461bcd60e51b815260206004820152601360248201527f504f4f4c5f414c52454144595f45584953545300000000000000000000000000604482015290519081900360640190fd5b600081116117b8576040805162461bcd60e51b815260206004820152600d60248201527f494e56414c49445f4c494d495400000000000000000000000000000000000000604482015290519081900360640190fd5b609c8054600181019091557faf85b9071dfafeac1409d3f1d19bafc9bc7c37974cde8df0ee6168f0086e539c0180546001600160a01b039093166001600160a01b0319909316831790556000918252609b602052604090912055565b609e546001600160a01b031681565b60d45481565b609b602052600090815260409020805460018201546002830154600384015460048501546005860154600690960154949593949293919290919064ffffffffff808216916501000000000081048216916a010000000000000000000082048116916f010000000000000000000000000000009004168a565b6118a9611d11565b6065546001600160a01b0390811691161461190b576040805162461bcd60e51b815260206004820181905260248201527f4f776e61626c653a2063616c6c6572206973206e6f7420746865206f776e6572604482015290519081900360640190fd5b6001600160a01b0381166119505760405162461bcd60e51b8152600401808060200182810382526026815260200180612df66026913960400191505060405180910390fd5b6065546040516001600160a01b038084169216907f8be0079c531659141344cd1fd0a4f28419497f9722a3daafe3b4186f6b6457e090600090a3606580546001600160a01b0319166001600160a01b0392909216919091179055565b60d75481565b6001600160a01b038084166000908152609d60209081526040808320938616835292905290812060060180548291829182918291829190889081106119f357fe5b600091825260209091206005909102018054600182015460028301546003840154600490940154929d919c509a509198509650945050505050565b60d1546001600160a01b031681565b609c5490565b611a4b611d11565b6065546001600160a01b03908116911614611aad576040805162461bcd60e51b815260206004820181905260248201527f4f776e61626c653a2063616c6c6572206973206e6f7420746865206f776e6572604482015290519081900360640190fd5b8015611abb57611abb611481565b611ac5848361162b565b6001600160a01b038416600081815260d8602090815260409182902086905560d78054870190558151868152429181019190915281517f09f4ecfc148afa46d7c66093530f34af617875df3897405026a6f13425a67709929181900390910190a250505050565b600082820183811015611b86576040805162461bcd60e51b815260206004820152601b60248201527f536166654d6174683a206164646974696f6e206f766572666c6f770000000000604482015290519081900360640190fd5b90505b92915050565b6001600160a01b038083166000818152609d60209081526040808320948616835293815283822060010154928252609b90529190912060030154611be091670de0b6b3a76400009161110a916126d8565b6001600160a01b039283166000908152609d602090815260408083209490951682529290925291902060040155565b604080516001600160a01b038416602482015260448082018490528251808303909101815260649091019091526020810180517bffffffffffffffffffffffffffffffffffffffffffffffffffffffff167fa9059cbb00000000000000000000000000000000000000000000000000000000179052610da390849061281b565b6001600160a01b038083166000818152609d60209081526040808320948616835293815283822060019081015493835260d890915292902090910154611ce291670de0b6b3a76400009161110a916126d8565b6001600160a01b03928316600090815260d9602090815260408083209490951682529290925291902060010155565b3390565b303b1590565b6001600160a01b0383166000908152609b60205260409020548390611d78576040805162461bcd60e51b815260206004820152600e60248201526d1413d3d317d393d517d193d5539160921b604482015290519081900360640190fd5b609a5460ff1615611dd0576040805162461bcd60e51b815260206004820152601860248201527f4e4f545f414c4c4f5745445f494e5f454d455247454e43590000000000000000604482015290519081900360640190fd5b6001600160a01b0384166000908152609d60209081526040808320338452909152812060068101805491929186908110611e0657fe5b906000526020600020906005020190508060040154600014611e6f576040805162461bcd60e51b815260206004820152600e60248201527f414c52454144595f455849544544000000000000000000000000000000000000604482015290519081900360640190fd5b8380611e7f575080600101544210155b611ed0576040805162461bcd60e51b815260206004820152600e60248201527f4d5553545f42455f464f52434544000000000000000000000000000000000000604482015290519081900360640190fd5b611ed98661089d565b600080858015611eec5750826001015442105b15611f3657611f0f606461110a60975486600201546126d890919063ffffffff16565b9150611f2f606461110a60985486600201546126d890919063ffffffff16565b9050611f89565b8515611f89576040805162461bcd60e51b815260206004820152601260248201527f4d5553545f4e4f545f42455f464f524345440000000000000000000000000000604482015290519081900360640190fd5b6000611fa68261142b85876002015461221790919063ffffffff16565b4260048601556001600160a01b038a166000908152609b60205260409020600286015460018201549293509091611fdc91612217565b600182015560038501546002820154611ff491612217565b600282015560048101546120089085611b2c565b600482015560068101805460001964ffffffffff65010000000000808404821692909201160269ffffffffff000000000019909116179055831561209c57600681018054600164ffffffffff6f0100000000000000000000000000000080840482169290920116027fffffffffffffffffffffffff0000000000ffffffffffffffffffffffffffffff9091161790556120e9565b600681018054600164ffffffffff6a010000000000000000000080840482169290920116027fffffffffffffffffffffffffffffffffff0000000000ffffffffffffffffffff9091161790555b600285015486546120f991612217565b86556003850154600187015461210e91612217565b600187015561211d8a33611b8f565b600084118015612131575060008160020154115b15612166576002810154612160906121559061110a87670de0b6b3a76400006126d8565b600383015490611b2c565b60038201555b8961217b6001600160a01b0382163385611c0f565b831561219b57609e5461219b906001600160a01b03838116911686611c0f565b600286015487548754604080519384526020840187905283810189905260608401889052608084019290925260a08301524260c08301525133916001600160a01b038e16917f2307620f84836a4cfc6aaccd2426db79fd0b2a502534c24c1447f6574640cda59181900360e00190a35050505050505050505050565b6000611b8683836040518060400160405280601e81526020017f536166654d6174683a207375627472616374696f6e206f766572666c6f7700008152506129d9565b6001600160a01b0383166000908152609b602052604090205483906122b6576040805162461bcd60e51b815260206004820152600e60248201526d1413d3d317d393d517d193d5539160921b604482015290519081900360640190fd5b609a5460ff161561230e576040805162461bcd60e51b815260206004820152601860248201527f4e4f545f414c4c4f5745445f494e5f454d455247454e43590000000000000000604482015290519081900360640190fd5b60008311612363576040805162461bcd60e51b815260206004820152600e60248201527f494e56414c49445f414d4f554e54000000000000000000000000000000000000604482015290519081900360640190fd5b60038210158015612375575060788211155b6123c6576040805162461bcd60e51b815260206004820152601060248201527f494e56414c49445f4455524154494f4e00000000000000000000000000000000604482015290519081900360640190fd5b6001600160a01b0384166000818152609d602090815260408083203384528252808320938352609b9091529020815481548793929187011115612450576040805162461bcd60e51b815260206004820152601260248201527f4d41585f4c494d49545f45584345454445440000000000000000000000000000604482015290519081900360640190fd5b6124656001600160a01b038416333089612a70565b61246e8761089d565b600061248361247c87612af8565b88906126d8565b9050826006016040518060a001604052808881526020016124b16099548a0242611b2c90919063ffffffff16565b815260208082018b90526040808301869052600060609384018190528554600181810188559682529083902085516005909202019081559184015194820194909455928201516002840155810151600383015560800151600490910155825461251a9088611b2c565b8355600283015461252b9088611b2c565b6002840155600183015461253f9082611b2c565b60018085019190915560058401805464ffffffffff80821684011664ffffffffff199091161790558201546125749088611b2c565b600183015560058201546125889088611b2c565b60058301556006820180546501000000000064ffffffffff8083166001908101821664ffffffffff19909416939093178281048216909301160269ffffffffff00000000001990911617905560028201546125e39082611b2c565b60028301556125f28833611b8f565b60018201546040805189815260208101929092528181018890524260608301525133916001600160a01b038b16917fadfc2e4057350132d546d5412da81ae54c03dff8a9abb9ab2385d848b3ab5b359181900360800190a35050505050505050565b6001600160a01b038116600090815260d86020526040812060d7548154600283015461268f929161110a916126899043612b1a565b906126d8565b9392505050565b6000611b8683836040518060400160405280601a81526020017f536166654d6174683a206469766973696f6e206279207a65726f000000000000815250612bf7565b6000826126e757506000611b89565b828202828482816126f457fe5b0414611b865760405162461bcd60e51b8152600401808060200182810382526021815260200180612e1c6021913960400191505060405180910390fd5b600054610100900460ff168061274a575061274a611d15565b80612758575060005460ff16155b6127935760405162461bcd60e51b815260040180806020018281038252602e815260200180612e3d602e913960400191505060405180910390fd5b600054610100900460ff161580156127be576000805460ff1961ff0019909116610100171660011790555b6127c6612c5c565b6127ce612cfc565b801561089a576000805461ff001916905550565b6000813f7fc5d2460186f7233c927e7db2dcc703c0e500b653ca82273b7bfad8045d85a470818114801590611431575050151592915050565b61282d826001600160a01b03166127e2565b61287e576040805162461bcd60e51b815260206004820152601f60248201527f5361666545524332303a2063616c6c20746f206e6f6e2d636f6e747261637400604482015290519081900360640190fd5b60006060836001600160a01b0316836040518082805190602001908083835b602083106128bc5780518252601f19909201916020918201910161289d565b6001836020036101000a0380198251168184511680821785525050505050509050019150506000604051808303816000865af19150503d806000811461291e576040519150601f19603f3d011682016040523d82523d6000602084013e612923565b606091505b50915091508161297a576040805162461bcd60e51b815260206004820181905260248201527f5361666545524332303a206c6f772d6c6576656c2063616c6c206661696c6564604482015290519081900360640190fd5b8051156129d35780806020019051602081101561299657600080fd5b50516129d35760405162461bcd60e51b815260040180806020018281038252602a815260200180612e6b602a913960400191505060405180910390fd5b50505050565b60008184841115612a685760405162461bcd60e51b81526004018080602001828103825283818151815260200191508051906020019080838360005b83811015612a2d578181015183820152602001612a15565b50505050905090810190601f168015612a5a5780820380516001836020036101000a031916815260200191505b509250505060405180910390fd5b505050900390565b604080516001600160a01b0380861660248301528416604482015260648082018490528251808303909101815260849091019091526020810180517bffffffffffffffffffffffffffffffffffffffffffffffffffffffff167f23b872dd000000000000000000000000000000000000000000000000000000001790526129d390859061281b565b600080612b06836003612696565b90506028811115611b895750602892915050565b600060d254821080612b2d575060d35483115b15612b3a57506000611b89565b60d254831015612b4a5760d25492505b60d354821115612b5a5760d35491505b60d4548211612b8957612b8260d55461268960d654612689878761221790919063ffffffff16565b9050611b89565b60d4548311158015612b9c575060d45482115b15612be657612b82612bbf60d55461268960d4548661221790919063ffffffff16565b612be060d55461268960d6546126898960d45461221790919063ffffffff16565b90611b2c565b60d554612b82906126898486612217565b60008183612c465760405162461bcd60e51b8152602060048201818152835160248401528351909283926044909101919085019080838360008315612a2d578181015183820152602001612a15565b506000838581612c5257fe5b0495945050505050565b600054610100900460ff1680612c755750612c75611d15565b80612c83575060005460ff16155b612cbe5760405162461bcd60e51b815260040180806020018281038252602e815260200180612e3d602e913960400191505060405180910390fd5b600054610100900460ff161580156127ce576000805460ff1961ff001990911661010017166001179055801561089a576000805461ff001916905550565b600054610100900460ff1680612d155750612d15611d15565b80612d23575060005460ff16155b612d5e5760405162461bcd60e51b815260040180806020018281038252602e815260200180612e3d602e913960400191505060405180910390fd5b600054610100900460ff16158015612d89576000805460ff1961ff0019909116610100171660011790555b6000612d93611d11565b606580546001600160a01b0319166001600160a01b038316908117909155604051919250906000907f8be0079c531659141344cd1fd0a4f28419497f9722a3daafe3b4186f6b6457e0908290a350801561089a576000805461ff00191690555056fe4f776e61626c653a206e6577206f776e657220697320746865207a65726f2061646472657373536166654d6174683a206d756c7469706c69636174696f6e206f766572666c6f77436f6e747261637420696e7374616e63652068617320616c7265616479206265656e20696e697469616c697a65645361666545524332303a204552433230206f7065726174696f6e20646964206e6f742073756363656564a2646970667358221220c54722b1580c278796b693b9bf4005f7e6e306e7254a52517a4ac11aae0ccb6364736f6c63430007010033",
  "immutableReferences": {},
  "source": "// SPDX-License-Identifier: MIT\nimport './openzeppelin/math/Math.sol';\nimport './openzeppelin/presets/ERC20PresetMinterPauser.sol';\nimport './LockUpPool.sol';\n\npragma solidity ^0.7.1;\n\ncontract WRNRewardPool is LockUpPool {\n  using SafeMath for uint256;\n  using SafeERC20 for ERC20PresetMinterPauserUpgradeSafe;\n\n  ERC20PresetMinterPauserUpgradeSafe public WRNToken; // WRN Reward Token\n\n  // NOTE: didn't use actual constant variable just in case we may chage it on upgrades\n  uint256 public REWARD_START_BLOCK;\n  uint256 public REWARD_END_BLOCK;\n  uint256 public REWARD_EARLY_BONUS_END_BLOCK;\n  uint256 public REWARD_PER_BLOCK;\n  uint256 public REWARD_EARLY_BONUS_BOOST;\n\n  uint256 public totalMultiplier;\n  struct WRNStats {\n    uint256 multiplier; // For WRN token distribution\n    uint256 accWRNPerShare;\n    uint256 lastRewardBlock;\n  }\n\n  struct UserWRNReward {\n    uint256 claimed;\n    uint256 debt;\n  }\n\n  // Token => WRNStats\n  mapping (address => WRNStats) public wrnStats;\n\n  // Token => Account => UserWRNReward\n  mapping (address => mapping (address => UserWRNReward)) public userWRNRewards;\n\n  event PoolAdded(address indexed tokenAddress, uint256 multiplier, uint256 timestamp);\n  event WRNMinted(address indexed tokenAddress, uint256 amount, uint256 timestamp);\n  event WRNClaimed(address indexed tokenAddress, address indexed account, uint256 amount, uint256 timestamp);\n\n  function initialize(address WRNAddress, uint256 rewardStartBlock, uint256 rewardBlocks, uint256 bonusBlocks) public initializer {\n    require(bonusBlocks <= rewardBlocks, 'INVALID_PARAM');\n\n    LockUpPool.initialize();\n\n    WRNToken = ERC20PresetMinterPauserUpgradeSafe(WRNAddress);\n\n    // Total of 1.2M WRN tokens will be distributed for 3.6 years\n    //  - 0.5 WRN per block for beta users (early participants)\n    //  - 0.1 WRN per block after the bonus period\n    // rewardBlocks = 8,800,000, bonusBlocks = 500,000\n    // -> 500,000 * 0.5 + 8,300,000 * 0.1 = 1,080,000 (distribution)\n    // + 1,080,000 / 9 = 120,000 (dev pool)\n    REWARD_START_BLOCK = rewardStartBlock;\n    REWARD_PER_BLOCK = 1e17; // 0.1 WRN\n    REWARD_END_BLOCK = REWARD_START_BLOCK.add(rewardBlocks); // 8.8M blocks (appx 3 years and 7 months)\n\n    // 5x distribution for the first 500k blocks (appx 75 days)\n    REWARD_EARLY_BONUS_END_BLOCK = REWARD_START_BLOCK.add(bonusBlocks);\n    REWARD_EARLY_BONUS_BOOST = 5;\n  }\n\n  // MARK: - Overiiding LockUpPool\n\n  function addLockUpRewardPool(address tokenAddress, uint256 multiplier, uint256 maxLockUpLimit, bool shouldUpdate) external onlyOwner {\n    require(multiplier >= 0, 'INVALID_MULTIPLIER');\n\n    if(shouldUpdate) {\n      // NOTE: This could fail with out-of-gas if too many tokens are added.\n      // If this fails, the owner MUST update all pools manually\n      //\n      // Adding a new pool without updating other existing pools can cause\n      // a smaller WRN reward than it should be (both pending & claimable value) because\n      // `pendingWRN` value becomes smaller with a samller `accWRNPerShare` (= with a bigger `totalMultiplier`).\n      // We should save the old `accWRNPerShare` (calculated with the old, smaller `totalMultiplier`)\n      // for every pool to prevent this issue.\n      updateAllPools();\n    }\n\n    addLockUpPool(tokenAddress, maxLockUpLimit);\n\n    wrnStats[tokenAddress].multiplier = multiplier;\n    totalMultiplier = totalMultiplier + multiplier;\n\n    emit PoolAdded(tokenAddress, multiplier, block.timestamp);\n  }\n\n  function updatePoolMultiplier(address tokenAddress, uint256 multiplier, bool shouldUpdate) external onlyOwner {\n    require(multiplier >= 0, 'INVALID_MULTIPLIER');\n\n    if(shouldUpdate) {\n      // NOTE: This could fail with out-of-gas if too many tokens are added.\n      // If this fails, the owner MUST update all pools manually\n      updateAllPools();\n    } else if (wrnStats[tokenAddress].multiplier > multiplier) {\n      // Decreasing multiplier shouldn't be allowed without `updateAllPools` calls because\n      // users can temporarily withdraw a bigger WRN reward than they actually have\n      // (caused by smaller `totalMultiplier` => bigger `accWRNPerShare`)\n\n      revert('UPDATE_ALL_REQUIRED');\n    }\n\n    totalMultiplier = totalMultiplier - wrnStats[tokenAddress].multiplier + multiplier;\n    wrnStats[tokenAddress].multiplier = multiplier;\n  }\n\n  function _updateDebt(address tokenAddress, address account) private {\n    userWRNRewards[tokenAddress][account].debt = wrnStats[tokenAddress].accWRNPerShare\n      .mul(userLockUps[tokenAddress][account].effectiveTotal).div(1e18);\n  }\n\n  function doLockUp(address tokenAddress, uint256 amount, uint256 durationInMonths) public override {\n    // Should claim WRN before exit, otherwise `pendingWRN` will become zero afterwards\n    claimWRN(tokenAddress);\n\n    super.doLockUp(tokenAddress, amount, durationInMonths);\n\n    // shouldn't get the bonus that's already accumulated before the user joined\n    _updateDebt(tokenAddress, msg.sender);\n  }\n\n  function exit(address tokenAddress, uint256 lockUpIndex, bool force) public override {\n    // Should claim WRN before exit, otherwise `pendingWRN` will become zero afterwards\n    claimWRN(tokenAddress);\n\n    super.exit(tokenAddress, lockUpIndex, force);\n\n    _updateDebt(tokenAddress, msg.sender);\n  }\n\n  // Return WRN per block over the given from to to block.\n  function _getWRNPerBlock(uint256 from, uint256 to) private view returns (uint256) {\n    if (to < REWARD_START_BLOCK || from > REWARD_END_BLOCK) { // Reward not started or finished\n      return 0;\n    }\n    if (from < REWARD_START_BLOCK) {\n      from = REWARD_START_BLOCK;\n    }\n    if (to > REWARD_END_BLOCK) {\n      to = REWARD_END_BLOCK;\n    }\n\n    if (to <= REWARD_EARLY_BONUS_END_BLOCK) { // Bonus period\n      return to.sub(from).mul(REWARD_EARLY_BONUS_BOOST).mul(REWARD_PER_BLOCK);\n    } else if (from <= REWARD_EARLY_BONUS_END_BLOCK && to > REWARD_EARLY_BONUS_END_BLOCK) { // Partial bonus period\n      return REWARD_EARLY_BONUS_END_BLOCK.sub(from).mul(REWARD_EARLY_BONUS_BOOST).mul(REWARD_PER_BLOCK).add(\n        to.sub(REWARD_EARLY_BONUS_END_BLOCK).mul(REWARD_PER_BLOCK)\n      );\n    } else { // After bonus period (from > REWARD_EARLY_BONUS_END_BLOCK)\n      return to.sub(from).mul(REWARD_PER_BLOCK);\n    }\n  }\n\n  // Update all pools\n  // NOTE: This could fail with out-of-gas if too many tokens are added\n  function updateAllPools() public {\n    uint256 length = pools.length;\n    for (uint256 pid = 0; pid < length; ++pid) {\n      updatePool(pools[pid]);\n    }\n  }\n\n  function updatePool(address tokenAddress) public _checkPoolExists(tokenAddress) {\n    WRNStats storage wrnStat = wrnStats[tokenAddress];\n    if (block.number <= wrnStat.lastRewardBlock) {\n      return;\n    }\n\n    TokenStats storage tokenStat = tokenStats[tokenAddress];\n    uint256 wrnToMint = _getAccWRNTillNow(tokenAddress);\n\n    if (wrnStat.lastRewardBlock != 0 && tokenStat.effectiveTotalLockUp > 0 && wrnToMint > 0) {\n      WRNToken.mint(fundAddress, wrnToMint.div(9)); // 10% dev pool (120,000 / (1,080,000 + 120,000) = 10%)\n      WRNToken.mint(address(this), wrnToMint);\n      wrnStat.accWRNPerShare = wrnStat.accWRNPerShare.add(\n        wrnToMint.mul(1e18).div(tokenStat.effectiveTotalLockUp)\n      );\n\n      emit WRNMinted(tokenAddress, wrnToMint, block.timestamp);\n    }\n\n    wrnStat.lastRewardBlock = block.number;\n  }\n\n  function _getAccWRNTillNow(address tokenAddress) private view returns (uint256) {\n    WRNStats storage wrnStat = wrnStats[tokenAddress];\n\n    return _getWRNPerBlock(wrnStat.lastRewardBlock, block.number)\n      .mul(wrnStat.multiplier)\n      .div(totalMultiplier);\n  }\n\n  function pendingWRN(address tokenAddress) public view returns (uint256) {\n    TokenStats storage tokenStat = tokenStats[tokenAddress];\n    WRNStats storage wrnStat = wrnStats[tokenAddress];\n    UserWRNReward storage userWRNReward = userWRNRewards[tokenAddress][msg.sender];\n\n    uint256 accWRNPerShare = wrnStat.accWRNPerShare;\n    if (block.number > wrnStat.lastRewardBlock && tokenStat.effectiveTotalLockUp != 0) {\n      uint256 accWRNTillNow = _getAccWRNTillNow(tokenAddress);\n      accWRNPerShare = accWRNPerShare.add(\n        accWRNTillNow.mul(1e18).div(tokenStat.effectiveTotalLockUp)\n      );\n    }\n\n    // NOTE: it doesn't subtract `userWRNReward.claimed` as it's already included in `userWRNReward.debt`\n    return userLockUps[tokenAddress][msg.sender].effectiveTotal\n      .mul(accWRNPerShare)\n      .div(1e18)\n      .sub(userWRNReward.debt);\n  }\n\n  function claimWRN(address tokenAddress) public {\n    updatePool(tokenAddress);\n\n    uint256 amount = pendingWRN(tokenAddress);\n    if (amount == 0) {\n      return;\n    }\n\n    UserWRNReward storage userWRNReward = userWRNRewards[tokenAddress][msg.sender];\n\n    userWRNReward.claimed = userWRNReward.claimed.add(amount);\n    _updateDebt(tokenAddress, msg.sender);\n\n    WRNToken.safeTransfer(msg.sender, amount);\n\n    emit WRNClaimed(tokenAddress, msg.sender, amount, block.timestamp);\n  }\n\n  function claimWRNandBonus(address tokenAddress) external {\n    claimWRN(tokenAddress);\n    claimBonus(tokenAddress);\n  }\n\n  // Reserved storage space to allow for layout changes in the future.\n  uint256[50] private ______gap;\n}\n",
  "sourcePath": "/Users/ggoma/Projects/neverlose.money-contract/contracts/WRNRewardPool.sol",
  "compiler": {
    "name": "solc",
    "version": "0.7.1+commit.f4a555be.Emscripten.clang"
  },
  "schemaVersion": "3.2.5",
  "updatedAt": "2020-12-14T07:56:14.536Z",
  "devdoc": {
    "kind": "dev",
    "methods": {
      "owner()": {
        "details": "Returns the address of the current owner."
      },
      "renounceOwnership()": {
        "details": "Leaves the contract without owner. It will not be possible to call `onlyOwner` functions anymore. Can only be called by the current owner. NOTE: Renouncing ownership will leave the contract without an owner, thereby removing any functionality that is only available to the owner."
      },
      "transferOwnership(address)": {
        "details": "Transfers ownership of the contract to a new account (`newOwner`). Can only be called by the current owner."
      }
    },
    "version": 1
  },
  "userdoc": {
    "kind": "user",
    "methods": {},
    "version": 1
  }
}